:100000000C94F5000C9407010C9407010C94070163
:100010000C9407010C9407010C9407010C94070140
:100020000C9407010C9407010C9407010C94070130
:100030000C9407010C9407010C9407010C94070120
:100040000C9407010C9407010C9407010C94070110
:100050000C9407010C9407010C9407010C94E50122
:100060000C9407010C9407010C9407010C940701F0
:100070000C9407010C9407010C9407010C940701E0
:100080000C9407010C9407010C9407010C940701D0
:100090000C9407010C9407010C9407010C940701C0
:1000A0000C9407010C9407010C9407010C940701B0
:1000B0000C9407010C9407010C9407010C940701A0
:1000C0000C9407010C9407010C9407010C94070190
:1000D0000C9407010C9407010C9407010C94070180
:1000E0000C94070100002100240027002A002D00A5
:1000F0003000330001010000040107010A01000083
:100100002200250028002B002E00310034000201BF
:100110000000050108010B01050505050705080894
:100120000808020202020A0A080804040404010181
:100130000101010101010303030303030303040796
:1001400007070C0C0C0C0C0C0C0C0202020206062D
:100150000606060606060B0B0B0B0B0B0B0B010220
:1001600010202008081020401020408002010201C9
:100170000804020101020408102040808040201081
:1001800008040201800402018040201008040201DA
:100190000804020101020408102040800102040842
:1001A0001020408000000A0B02090C0D0E08070306
:1001B000040100000000000000000000000000003A
:1001C000000000000000000000000000000000002F
:1001D00012111000000000000000000000000000EC
:1001E0000000000000000000000011241FBECFEF3F
:1001F000D1E2DEBFCDBF22E0A0E0B2E001C01D929F
:10020000A930B207E1F70E942F020C94FC020C9473
:100210000000E8EAF1E02491E2E6F1E03491ECE15B
:10022000F1E09491992309F433C0222301F1215084
:100230002231E8F4E22FF0E0E05EFE4F0C94F3028E
:1002400051015501320149014D01370158015E014B
:10025000620168016C01700176017A0137017E014B
:1002600084018801209180002F7720938000E92F5E
:10027000F0E0EE0FFF1FE250FF4FA591B4919FB742
:10028000F894EC91811148C030953E233C939FBF78
:100290000895209180002F7DE8CF20918000277F56
:1002A000E4CF24B52F7724BDE2CF24B52F7DFBCF3B
:1002B0002091B0002F772093B000D9CF2091B000CB
:1002C0002F7DF9CF209190002F7720939000CFCFF2
:1002D000209190002F7DF9CF20919000277FF5CFBE
:1002E0002091A0002F772093A000C1CF2091A000E3
:1002F0002F7DF9CF2091A000277FF5CF20912001FD
:100300002F7720932001B3CF209120012F7DF9CFAB
:1003100020912001277FF5CF3E2BB8CF3FB7F8942F
:100320008091050290910602A0910702B091080207
:1003300026B5A89B05C02F3F19F00196A11DB11D40
:100340003FBFBA2FA92F982F8827BC01CD01620F7C
:10035000711D811D911D42E0660F771F881F991F37
:100360004A95D1F708958F929F92AF92BF92CF9204
:10037000DF92EF92FF924B015C010E948E016B01B4
:100380007C010E948E016C197D098E099F09683ECF
:10039000734081059105A8F321E0821A9108A10814
:1003A000B10888EEC80E83E0D81EE11CF11C811450
:1003B0009104A104B10429F7FF90EF90DF90CF9052
:1003C000BF90AF909F908F9008951F920F920FB69D
:1003D0000F9211242F933F938F939F93AF93BF93CB
:1003E0008091010290910202A0910302B091040257
:1003F0003091000223E0230F2D3758F50196A11DFF
:10040000B11D209300028093010290930202A093F9
:100410000302B09304028091050290910602A0911C
:100420000702B09108020196A11DB11D809305023B
:1004300090930602A0930702B0930802BF91AF9178
:100440009F918F913F912F910F900FBE0F901F9012
:10045000189526E8230F0296A11DB11DD2CF7894DE
:1004600084B5826084BD84B5816084BD85B58260B9
:1004700085BD85B5816085BD80916E00816080936A
:100480006E001092810080918100826080938100D3
:1004900080918100816080938100809180008160E3
:1004A000809380008091B10084608093B10080913E
:1004B000B00081608093B000809191008260809351
:1004C00091008091910081608093910080919000D3
:1004D0008160809390008091A10082608093A10050
:1004E0008091A10081608093A1008091A000816033
:1004F0008093A000809121018260809321018091EE
:10050000210181608093210180912001816080938D
:10051000200180917A00846080937A0080917A0033
:10052000826080937A0080917A00816080937A0063
:1005300080917A00806880937A001092C100E2E690
:10054000F1E02491ECE1F1E08491882399F090E0CE
:10055000880F991FFC01EC51FF4FA591B491FC014C
:10056000E250FF4F859194918FB7F894EC91E22B74
:10057000EC938FBFE1E6F1E02491EBE1F1E08491AF
:100580008823C1F090E0880F991FFC01EC51FF4FC8
:10059000C591D491FC01E250FF4FA591B4919FB752
:1005A000F8943881822F809583238883EC91E22B05
:1005B000EC939FBFC0E0D0E081E00E94090160EDB4
:1005C00077E080E090E00E94B30180E00E940901A2
:1005D00064EF71E080E090E00E94B301209761F346
:1005E0000E940000E9CFEE0FFF1F0024001C0BBE8D
:0C05F0000790F691E02D0994F894FFCFDD
:00000001FF
